:100000000C9455000C946C000C946C000C946C00D7
:100010000C946C000C946C000C946C000C946C00B0
:100020000C946C000C946C000C946C000C946C00A0
:100030000C946C000C946C000C946C000C946C0090
:100040000C946C000C946C000C946C000C946C0080
:100050000C946C000C946C000C946C000C946C0070
:100060000C946C000C946C000C946C000C946C0060
:100070000C946C000C946C000C946C000C946C0050
:100080000C946C000C946C000C946C0005A84CCD86
:10009000B2D44EB93836A9020C50B9918688083CC2
:1000A000A6AAAA2ABE000000803F11241FBECFEFDF
:1000B000D0E1DEBFCDBF11E0A0E0B1E0EEEDFAE0AF
:1000C00000E00BBF02C007900D92A431B107D9F731
:1000D0000E94D1010C946D050C9400008F929F92A8
:1000E000AF92BF92CF92DF92EF92FF920F931F9346
:1000F000CF93DF93EC014A018230910511F418BAD5
:1001000004C08130910509F413B8CB0162E070E0BE
:100110000E944605882777FD8095982F0E944C0302
:100120005B016C0126E636E646E655E40E940004D3
:100130007B018C0120E030E040E85FE30E94AD02EB
:1001400088231CF461E070E024C0C801B70120E0FE
:100150003FEF4FE757E40E94FC031816B4F4C601C2
:10016000B50120E030E040E251E40E9400040E942A
:100170001E0380E791E005C0FC013197F1F7615063
:10018000704061157105C1F707C0C801B7010E9431
:100190001E03CB010197F1F783E390E0889E900165
:1001A000899E300D989E300D112428BBC230D10598
:1001B00011F428BB03C0219709F423B9C801B70182
:1001C00020E030E040E85FE30E94AD0288231CF4A9
:1001D00061E070E024C0C801B70120E03FEF4FE7C5
:1001E00057E40E94FC031816B4F4C601B50120E0E0
:1001F00030E040E251E40E9400040E941E0380E7C8
:1002000091E005C0FC013197F1F761507040611534
:100210007105C1F707C0C801B7010E941E03CB01D9
:100220000197F1F7DF91CF911F910F91FF90EF9020
:10023000DF90CF90BF90AF909F908F90089583B93B
:1002400068BB08952F923F924F925F926F927F9278
:100250008F929F92AF92BF92CF92DF92EF92FF92D6
:100260000F931F93CF93DF931B0183E390E0489F8D
:100270002001499F500C589F500C1124C20162E08C
:1002800070E00E944605EB016624772488249924B7
:1002900071C0B301882777FD8095982F0E944C0389
:1002A00025E236E049E450E40E94000420E030E01A
:1002B00044E353E40E94B1020E94630420E030E072
:1002C00048E452E40E9400040E941903CE01861BF8
:1002D000970B60E070E00E941F0181E090E0B101A7
:1002E0000E944605882777FD8095982F0E944C0331
:1002F0005B016C0126E636E646E655E40E94000402
:100300007B018C0120E030E040E85FE30E94AD0219
:1003100088231CF461E070E023C0C801B70120E02D
:100320003FEF4FE757E40E94FC031816ACF4C601F8
:10033000B50120E030E040E251E40E9400040E9458
:100340001E0306C080E791E00197F1F7615070400D
:1003500061157105B9F707C0C801B7010E941E03F6
:10036000CB010197F1F787E090E0680E791E0894C1
:10037000811C911C841495040CF48BCFDF91CF91D8
:100380001F910F91FF90EF90DF90CF90BF90AF90B3
:100390009F908F907F906F905F904F903F902F90A5
:1003A00008952F923F924F925F926F927F928F9219
:1003B0009F92AF92BF92CF92DF92EF92FF920F93F4
:1003C0001F93CF93DF938FEF82B987BB83B988BB2D
:1003D00000E010E0C0E0D0E0EE24FF24AA24BB241B
:1003E000CC24DD2430E0632E31E0732E23E3222E73
:1003F000312C9BE0892E91E0992E8CE4482E512CD3
:10040000C7016BE176E00E9446059C0197FD46C05E
:10041000B901882777FD8095982F0E944C0327E12A
:1004200037EB41E558E30E94AD028823BCF587E035
:10043000681681E0780621F5B501882777FD80955B
:10044000982F0E944C0325E236E049E450E40E94D4
:10045000000420E030E044E353E40E94B1020E9433
:10046000630420E030E048E452E40E9400040E946B
:1004700019038101061B170B87E090E0A80EB91E37
:10048000012B19F000E010E002C006E610E09BE04E
:10049000691691E0790611F40F5F1F4FC70169E0FB
:1004A00070E00E9446059C0197FD49C0B90188276C
:1004B00077FD8095982F0E944C0327E137EB41E5AB
:1004C00058E30E94AD028823D4F587E0881681E0C6
:1004D000980621F5B601882777FD8095982F0E9410
:1004E0004C0325E236E049E450E40E94000420E099
:1004F00030E044E353E40E94B1020E94630420E030
:1005000030E048E452E40E9400040E941903E20132
:10051000C61BD70B87E090E0C80ED91E90E0891665
:1005200091E0990629F4CD2BA9F0C0E0D0E006C0F7
:10053000CF3FD10519F4C0E0D0E001C02196C80139
:10054000BE010E941F0184E08A95F1F70894E11C26
:10055000F11C56CFC9E9D0E0F1CFD9D008F481E041
:1005600008950CD00FC107D140F0FED030F021F437
:100570005F3F19F0F0C0511139C1F3C014D198F3A5
:100580009923C9F35523B1F3951B550BBB27AA2714
:1005900062177307840738F09F5F5F4F220F331F86
:1005A000441FAA1FA9F333D00E2E3AF0E0E830D052
:1005B00091505040E695001CCAF729D0FE2F27D055
:1005C000660F771F881FBB1F261737074807AB0723
:1005D000B0E809F0BB0B802DBF01FF2793585F4F98
:1005E0002AF09E3F510568F0B6C000C15F3FECF3B2
:1005F000983EDCF3869577956795B795F7959F5F5D
:10060000C9F7880F911D9695879597F90895E1E0B0
:10061000660F771F881FBB1F621773078407BA070F
:1006200020F0621B730B840BBA0BEE1F88F7E0956A
:10063000089504D06894B111D9C00895BCD088F051
:100640009F5790F0B92F9927B751A0F0D1F0660FBE
:10065000771F881F991F1AF0BA95C9F712C0B130D9
:1006600081F0C3D0B1E00895C0C0672F782F8827EC
:10067000B85F39F0B93FCCF3869577956795B39518
:10068000D9F73EF490958095709561957F4F8F4F87
:100690009F4F0895E89409C097FB3EF4909580958C
:1006A000709561957F4F8F4F9F4F9923A9F0F92F38
:1006B00096E9BB279395F695879577956795B795B6
:1006C000F111F8CFFAF4BB0F11F460FF1BC06F5F9C
:1006D0007F4F8F4F9F4F16C0882311F096E911C0AE
:1006E000772321F09EE8872F762F05C0662371F0CF
:1006F00096E8862F70E060E02AF09A95660F771FE3
:10070000881FDAF7880F9695879597F90895990FBE
:100710000008550FAA0BE0E8FEEF16161706E807CB
:10072000F907C0F012161306E407F50798F0621BEC
:10073000730B840B950B39F40A2661F0232B242BC1
:10074000252B21F408950A2609F4A140A6958FEFE0
:10075000811D811D089597F99F6780E870E060E032
:1007600008959FEF80EC089500240A94161617064A
:1007700018060906089500240A9412161306140692
:1007800005060895092E0394000C11F4882352F0F5
:10079000BB0F40F4BF2B11F460FF04C06F5F7F4FAD
:1007A0008F4F9F4F089557FD9058440F551F59F094
:1007B0005F3F71F04795880F97FB991F61F09F3F4E
:1007C00079F087950895121613061406551FF2CF77
:1007D0004695F1DF08C0161617061806991FF1CFC7
:1007E00086957105610508940895E894BB276627EE
:1007F0007727CB0197F908958ADF08F48FEF0895E2
:100800000BD0C0CFB1DF28F0B6DF18F0952309F088
:10081000A2CFA7CF1124EACFC6DFA0F3959FD1F3D3
:10082000950F50E0551F629FF001729FBB27F00D9E
:10083000B11D639FAA27F00DB11DAA1F649F6627F3
:10084000B00DA11D661F829F2227B00DA11D621F42
:10085000739FB00DA11D621F839FA00D611D221FFC
:10086000749F3327A00D611D231F849F600D211DE0
:10087000822F762F6A2F11249F5750408AF0E1F083
:1008800088234AF0EE0FFF1FBB1F661F771F881FCC
:1008900091505040A9F79E3F510570F05CCFA6CF14
:1008A0005F3FECF3983EDCF3869577956795B795B7
:1008B000F795E7959F5FC1F7FE2B880F911D9695E1
:1008C000879597F908959F9305D00F9007FCEE5FE9
:1008D00028C047CF70DFE8F3E894E0E0BB279F57DC
:1008E000F0F02AED3FE049EC06C0EE0FBB0F661FAB
:1008F000771F881F28F0B23A62077307840728F031
:10090000B25A620B730B840BE3959A9572F7803899
:1009100030F49A95BB0F661F771F881FD2F7904857
:1009200073C0EF93E0FF06C0A2EA2AED3FE049EC76
:100930005FEB15D027DF0F90039401FC9058ECE893
:10094000F0E06EC011DF30F016DF20F031F49F3F91
:1009500011F41EF406CF0EF4E095E7FBFCCEE92F70
:1009600022DF80F3BA17620773078407950718F030
:1009700071F49EF53ACF0EF4E0950B2EBA2FA02D10
:100980000B01B90190010C01CA01A0011124FF273C
:10099000591B99F0593F50F4503E68F11A16F04037
:1009A000A22F232F342F4427585FF3CF4695379536
:1009B0002795A795F0405395C9F77EF41F16BA0BFB
:1009C000620B730B840BBAF09150A1F0FF0FBB1FA9
:1009D000661F771F881FC2F70EC0BA0F621F731FF2
:1009E000841F48F4879577956795B795F7959E3F4F
:1009F00008F0B3CF9395880F08F09927EE0F9795DD
:100A0000879508959F3F31F0915020F48795779511
:100A10006795B795880F911D9695879597F90895D5
:100A20009F938F937F936F93FF93EF939B01AC0101
:100A3000E7DEEF91FF9105D02F913F914F915F91AC
:100A4000DFCEDF93CF931F930F93FF92EF92DF924E
:100A50007B018C01689405C0DA2EEF01DDDEFE011A
:100A6000E894A5912591359145915591AEF3EF010B
:100A700076DFFE019701A801DA9479F7DF90EF9015
:100A8000FF900F911F91CF91DF91089597FB092E51
:100A900007260AD077FD04D00CD006D000201AF427
:100AA000709561957F4F0895F6F7909581959F4FCA
:100AB0000895AA1BBB1B51E107C0AA1FBB1FA617A5
:100AC000B70710F0A61BB70B881F991F5A95A9F7F7
:0E0AD00080959095BC01CD010895F894FFCF5C
:100ADE007371756172650073696E00747269616E0F
:040AEE00676C6500CC
:00000001FF
